:020000020000FC
:0200000025C019
:040010000C94CD007F
:02003400BBC14E
:100040000C9491010FEF0DBF08E00EBFF89400E88B
:100050000093610004E0009361000FEF04B900E039
:1000600005B90FEF0AB900E00BB908E207B907E1DB
:1000700008B90E942D020E94320201E000936E0036
:1000800001E000936F0007E100936C0002E0009331
:10009000680011272227332766275527772700E096
:1000A000009301010093020103E00093030102E0C9
:1000B0000093040100E00093000100930501009308
:1000C0000601009307010093080100930A010093C1
:1000D0000B0100930C0100930D0100930E0100939E
:1000E0000F01009310010093110100931201882762
:1000F000789400E00093C100203061F0213001F1DC
:10010000223029F12330E9F12430F9F125300C9423
:10011000C900F2CF80FD0E94EE01289A29985091E3
:100120000101509305015091020150930601509135
:100130000301509307015091040150930801DCCF53
:1001400028982998439809E000930501D5CF81FDAF
:100150000E94000182FD0E944601289A2998439836
:1001600070910B017093050170910C017093060161
:1001700070910D017093070170910E017093080149
:10018000BBCF2898299A4398B7CF28982998449AA2
:10019000B3CF289829984398AFCF0F930FB70F93F9
:1001A000329B0C94DE00309B0C94E600319B0C9447
:1001B000EA00349B0C94EE000C94FC00239506E0BE
:1001C00020130C94FC0022270C94FC0002E08027F2
:1001D0000C94FC0004E080270C94FC0070910A0150
:1001E000739570930A0102E070130C94FC0077275A
:1001F00070930A010C94FC000F910FBF0F9118959A
:1002000002E08027223021F02330F1F10C9490019C
:1002100070910A01703021F07130E1F00C9490017E
:1002200070910B01793029F0739570930B010C9448
:10023000900170E070930B0170910C0173957093B5
:100240000C0106E070130C949001772770930C0159
:100250000C94900170910D01793029F07395709391
:100260000D010C94900170E070930D0170910E01DE
:10027000739570930E0106E070130C94900177272C
:1002800070930E010C9490010C94900104E080276F
:10029000223031F0233011F00C9490010C94900135
:1002A00070910A01703021F07130F1F00C949001DE
:1002B00070910B01703029F07A9570930B010C94BA
:1002C000900179E070930B0170910C01703029F06E
:1002D0007A9570930C010C94900170910C0175E06B
:1002E00070930C010C94900170910D01703029F005
:1002F0007A9570930D010C94900179E070930D0143
:1003000070910E01703029F07A9570930E010C9463
:10031000900170910E0175E070930E010C949001A4
:1003200008950F930FB70F932A982B982C982D9818
:10033000139505E010130C94A00110E00C94D20169
:10034000113041F0123081F01330C1F0143001F15E
:100350000C94D2012A9A60910501F4E0EEE7E60FD1
:1003600044914BB90C94D2012B9A60910601F4E0B0
:10037000EEE7E60F44914BB90C94D2012C9A6091B0
:100380000701F4E0EEE7E60F44914BB90C94D2017B
:100390002D9A60910801F4E0EEE7E60F44914BB925
:1003A0000C94D2010F910FBF0F9118950F930FB7B7
:1003B0000F9304E040274BB950910001539550939F
:1003C0000001513039F455275093000101E0802796
:1003D0000C94EA010F910FBF0F91189501E080274F
:1003E00050910101593029F05395509301010C941B
:1003F0002C0250E05093010150910201553029F038
:100400005395509302010C942C0250E0509301013B
:100410005093020150910301593029F053955093A4
:1004200003010C942C0250E05093030150910401FD
:10043000523029F05395509304010C942C025091A2
:100440000301543049F450E05093010150930201EC
:100450005093030150930401089502E005BD06E0A6
:1004600006BD08950BE0009385000DEC0093840019
:1004700000E00093800002E00093810008957B0A71
:0E048000B39BCAD9F90BFBDBEBF871B4F1E1C9
:00000001FF
