:020000020000FC
:0200000025C019
:040010000C94E40068
:020034001EC2EA
:100040000C94F4010FEF0DBF08E00EBFF89400E828
:100050000093610004E0009361000FEF04B900E039
:1000600005B90FEF0AB900E00BB908E207B907E1DB
:1000700008B90E949B020E94A00201E000936E005A
:1000800001E000936F0007E100936C0002E0009331
:10009000680011272227332766275527772700E096
:1000A000009301010093020100E00093030100E0CE
:1000B0000093040100E00093000100930501009308
:1000C0000601009307010093080100930A010093C1
:1000D0000B0100930C0100930D0100930E0100939E
:1000E0000F01009310010093110100931201882762
:1000F000789400E00093C100203069F0213009F1CC
:10010000223031F12330F1F124300C94DC00253021
:100110000C94E000F1CF80FD0E945102289A2998AA
:100120005091010150930501509102015093060135
:10013000509103015093070150910401509308011D
:10014000DBCF28982998439809E000930501D4CF84
:1001500081FD0E94170182FD0E94A601289A29981C
:10016000439870910B017093050170910C0170938D
:10017000060170910D017093070170910E0170934B
:100180000801BACF2898299A439881FD0E94170147
:1001900082FD0E94A60170910F017093050170917C
:1001A0001001709306017091110170930701709115
:1001B000120170930801A0CF28982998449A9CCFE7
:1001C00028982998439898CF0F930FB70F93329B95
:1001D0000C94F500309B0C94FD00319B0C940101B4
:1001E000349B0C9405010C941301239506E0201315
:1001F0000C94130122270C94130102E080270C9425
:10020000130104E080270C94130170910A01739587
:1002100070930A0102E070130C9413017727709316
:100220000A010C9413010F910FBF0F91189502E072
:100230008027223011F40C942301233011F40C9404
:1002400072010C94A50170910A01703021F0713097
:10025000E1F00C94A50170910B01793029F07395B0
:1002600070930B010C94A50170E070930B017091D9
:100270000C01739570930C0106E070130C94A501AA
:10028000772770930C010C94A50170910E017230C8
:1002900079F470910D017430F1F4772770930B01AC
:1002A00070930C0170930D0170930E010C94A501D5
:1002B00070910D01793029F0739570930D010C94B4
:1002C000A50170E070930D0170910E01739570930C
:1002D0000E010C94A50170910D01739570930D01A1
:1002E0000C94A50170910A01703021F0713059F120
:1002F0000C94A50170911001713059F470910F01A7
:10030000723081F4772770930F01709310010C9471
:10031000A50170910F01793061F0739570930F0111
:100320000C94A50170910F01739570930F010C94BB
:10033000A50170E070930F01709110017395709397
:1003400010010C94A5010C94A501089504E08027E8
:100350000C94AA01223011F40C94B2012330A9F7B5
:100360000C94F20170910A01703021F07130F1F0BB
:100370000C94A50170910B01703029F07A9570935F
:100380000B010C94A50179E070930B0170910C01A5
:10039000703029F07A9570930C010C94A50170913E
:1003A0000C0175E070930C010C94A50170910D0186
:1003B000703029F07A9570930D010C94A50174E0CA
:1003C00070930D0170910E01703029F07A95709341
:1003D0000E010C94A50170910E0172E070930E0154
:1003E0000C94A5010C94A5010F930FB70F932A98B5
:1003F0002B982C982D98139505E010130C9403025C
:1004000010E00C943502113041F0123081F01330BD
:10041000C1F0143001F10C9435022A9A6091050163
:10042000F5E0EAE5E60F44914BB90C9435022B9ABE
:1004300060910601F5E0EAE5E60F44914BB90C94B2
:1004400035022C9A60910701F5E0EAE5E60F449148
:100450004BB90C9435022D9A60910801F5E0EAE55C
:10046000E60F44914BB90C9435020F910FBF0F91D9
:1004700018950F930FB70F9304E040274BB9509195
:100480000001539550930001513039F45527509392
:10049000000101E080270C944D020F910FBF0F91D6
:1004A000189501E0802750910101593029F05395AA
:1004B000509301010C949A0250E050930101509125
:1004C0000201553029F05395509302010C949A0281
:1004D00050E05093010150930201509104015230B9
:1004E00079F4509103015330F1F4552750930101F1
:1004F0005093020150930301509304010C949A020B
:1005000050910301593029F05395509303010C94F5
:100510009A0250E050930301509104015395509377
:1005200004010C949A0250910301539550930301D6
:100530000C949A02089502E005BD06E006BD0895F8
:100540000BE0009385000DEC0093840000E0009325
:10055000800002E00093810008957B0AB39BCAD912
:0A056000F90BFBDBEBF871B4F1E1DD
:00000001FF
