:020000020000FC
:0200000025C019
:040010000C949B01B0
:020034004AC4BC
:100040000C9420040FEF0DBF08E00EBFF89400E8F9
:100050000093610004E0009361000FEF04B900E039
:1000600005B90FEF0AB900E00BB908E207B907E1DB
:1000700008B90E9437050E943C0501E000936E001C
:1000800001E000936F0007E100936C0002E0009331
:100090006800112722E033276627552777279927FD
:1000A000882700E0009301010093020100E0009323
:1000B000030100E00093040100E0009300010093BD
:1000C00005010093060100930701009308010093C6
:1000D0000A0100930B0100930C0100930D010093A2
:1000E0000E01009313010093140100931501009376
:1000F000160101E000930F0100E00093100101E000
:100100000093110100E00093120100931701009386
:1001100018010093190101E000931A0100E0009317
:100120001B0101E000931C0100E000931D01789485
:1001300000E00093C1002530C1F0203061F0213093
:1001400061F0223061F0233061F024300C94B30070
:10015000253059F0F0CF0C94B7000C94D0000C94DB
:10016000ED000C9417010C9444010C94610180FD86
:100170000E947D04289A2998439A0E94490550912B
:1001800001015093050150910201509306015091D5
:100190000301509307015091040150930801CBCF04
:1001A0002898299A439A80FD0E947D0483FD0E942D
:1001B000C80484FD0E940A0550911C01509305015A
:1001C00050911D015093060150911A01509307015F
:1001D00050911B0150930801AECF81FD0E94CE01CA
:1001E00082FD0E94FB02289A2998439870910B0186
:1001F0007093050170910C017093060170910D01CF
:100200007093070170910E017093080150910B01DA
:100210005093010150910C015093020150910D0136
:100220005093030150910E015093040184CF2898FC
:10023000299A439881FD0E94CE0182FD0E94FB0213
:1002400080FD0E947D0470910F01709305017091F3
:100250001001709306017091110170930701709164
:1002600012017093080150910F0150931C0150919D
:10027000100150931D015091110150931A0150919A
:10028000120150931B0157CF80FD0E947D0481FD18
:100290000E94CE0182FD0E94FB0228982998439A71
:1002A0007091130170930501709114017093060110
:1002B00070911501709307017091160170930801F8
:1002C0003ACF7091130170930501709114017093EE
:1002D00006017091150170930701709116017093DA
:1002E000080180FD0E947D0428982998439845982C
:1002F00022CF50910B015093010150910C0150936A
:10030000020150910D015093030150910E01509341
:100310000401089550910F0150931C015091100158
:1003200050931D015091110150931A0150911201E7
:1003300050931B0108950F930FB70F93329B0C94AA
:10034000AC01309B0C94B401319B0C94B801349BEC
:100350000C94BC010C94CA01239506E020130C9464
:10036000CA0122270C94CA0102E080270C94CA011A
:1003700004E080270C94CA0170910A017395709370
:100380000A0102E070130C94CA01772770930A01E6
:100390000C94CA010F910FBF0F91189502E08027AE
:1003A000223011F40C94DE01233011F40C942D0250
:1003B000243011F40C94AB020C94FA0270910A01EF
:1003C000703021F07130E1F00C94FA0270910B0161
:1003D000793029F0739570930B010C94FA0270E058
:1003E00070930B0170910C01739570930C0106E0F2
:1003F00070130C94FA02772770930C010C94FA0294
:1004000070910E01723079F470910D017330F1F436
:10041000772770930B0170930C0170930D0170930B
:100420000E010C94FA0270910D01793029F0739548
:1004300070930D010C94FA0270E070930D017091AD
:100440000E01739570930E010C94FA0270910D01D8
:10045000739570930D010C94FA0270910A0170303B
:1004600021F07130D1F10C94FA02709119017C30B5
:1004700029F07395709319010C94430270E0709306
:1004800019010C94430270911001713061F4709164
:100490000F01723089F471E070930F017727709328
:1004A00010010C94FA0270910F01793061F073958C
:1004B00070930F010C94FA0270910F017395709371
:1004C0000F010C94FA0270E070930F01709110010B
:1004D0007395709310010C94FA0270911901FAE06F
:1004E000EAEEE70F04910093170170911901FAE009
:1004F000E6EFE70F0491009318017091120100914B
:100500001801701771F400911701709111017017A3
:10051000D9F471E0709311017727709312010C9454
:10052000FA0270911101793029F0739570931101DD
:100530000C94FA0270E0709311017091120173959E
:10054000709312010C94FA027091110173957093DB
:1005500011010C94FA0270910A01703021F071308F
:10056000E1F00C94FA0270911301793029F073953F
:10057000709313010C94FA0270E070931301709160
:10058000140173957093140106E070130C94FA0231
:100590007727709314010C94FA027091160172304F
:1005A00079F4709115017330F1F47727709313018A
:1005B0007093140170931501709316010C94FA0254
:1005C00070911501793029F07395709315010C9491
:1005D000FA0270E070931501709116017395709393
:1005E00016010C94FA027091150173957093150120
:1005F0000C94FA02089504E080270C94FF02223044
:1006000011F40C940D03233011F40C945B0324308B
:1006100011F40C94D2030C94FA0270910A01703018
:1006200021F07130F1F00C94FA0270910B017030EE
:1006300029F07A9570930B010C94FA0279E070938B
:100640000B0170910C01703029F07A9570930C01B8
:100650000C94FA0270910C0175E070930C010C94EB
:10066000FA0270910E01703061F470910D017030DA
:10067000D9F473E070930D0172E070930E010C9445
:10068000FA0270910D01703029F07A9570930D0186
:100690000C94FA0270910E017A9570930E0179E034
:1006A00070930D010C94FA0270910D017A9570937C
:1006B0000D010C94FA0270910A01703021F0713032
:1006C000A9F10C94FA0270911901703029F07A9511
:1006D000709319010C94710372E1709319010C94D9
:1006E000FA0270911001703021F470910F01713095
:1006F000A9F070910F01703029F07A9570930F0175
:100700000C94FA02709110017A957093100179E0BF
:1007100070930F01703011F00C94FA0272E0709334
:100720000F0171E0709310010C94FA02709119019D
:10073000FAE0EAEEE70F04910093170170911901B6
:10074000FAE0E6EFE70F04910093180170911201AF
:10075000703071F4709111017130E9F470911701EA
:100760007093110170911801709312010C94FA02A8
:1007700070911101703029F07A95709311010C94E9
:10078000FA02709112017A957093120179E07093D8
:1007900011010C94FA02709111017A957093110174
:1007A0000C94FA0270910A01703021F07130F1F06E
:1007B0000C94FA0270911301703029F07A957093BD
:1007C00013010C94FA0279E07093130170911401F3
:1007D000703029F07A95709314010C94FA0270919C
:1007E000140175E0709314010C94FA0270911601D3
:1007F000703061F4709115017030D9F473E070932A
:10080000150172E0709316010C94FA0270911501B3
:10081000703029F07A95709315010C94FA0270915A
:1008200016017A957093160179E0709315010C9476
:10083000FA02709115017A95709315010C94FA02E1
:100840000F930FB70F932A982B982C982D981395E8
:1008500005E010130C942F0410E00C946104113087
:1008600041F0123081F01330C1F0143001F10C94DA
:1008700061042A9A60910501FAE0EAEDE60F4491DD
:100880004BB90C9461042B9A60910601FAE0EAEDF1
:10089000E60F44914BB90C9461042C9A60910701C6
:1008A000FAE0EAEDE60F44914BB90C9461042D9AFD
:1008B00060910801FAE0EAEDE60F44914BB90C941F
:1008C00061040F910FBF0F9118950F930FB70F93FE
:1008D00004E040274BB9509100015395509300011B
:1008E000513039F455275093000101E080270C94D2
:1008F00079040F910FBF0F91189501E08027509157
:100900000101593029F05395509301010C9436059B
:1009100050E05093010150910201553029F0539558
:10092000509302010C94360550E05093010150930E
:10093000020150910401523089F450910301533067
:1009400001F5552750930101509302015093030183
:100950005093040108E080270C9436055091030160
:10096000593029F05395509303010C94360550E00B
:1009700050930301509104015395509304010C943A
:100980003605509103015395509303010C9436059D
:1009900008E0802770911901FAE0EAEEE70F049170
:1009A0000093170170911901FAE0E6EFE70F049147
:1009B0000093180170911B0100911801701781F4C8
:1009C0000091170170911A017017E9F471E07093AA
:1009D0001A01772770931B0100E180270C943605DC
:1009E00070911A01793029F0739570931A010C9463
:1009F000360570E070931A0170911B017395709326
:100A00001B010C94360570911B01739570931B01AB
:100A10000C94360500E1802770911D01713061F45E
:100A200070911C01723089F471E070931C0177277A
:100A300070931D010C94360570911C01793061F0A2
:100A4000739570931C010C94360570911C0173957D
:100A500070931C010C94360570E070931C0170912A
:100A60001D01739570931D010C943605089502E0E5
:100A700005BD06E006BD08950BE0009385000DEC72
:100A80000093840000E00093800002E00093810066
:100A900008950091040190911601091711F00C942A
:100AA0006C050091030190911501091711F00C9448
:100AB0006C050091020190911401091711F00C943A
:100AC0006C050091010190911301091711F00C942C
:100AD0006C05459A0C946C0508957B0AB39BCAD9A2
:100AE000F90BFBDBEBF871B4F1E101080100010047
:100AF00001010001000103020303030303030303D5
:020B00000303ED
:00000001FF
