:020000020000FC
:0200000025C019
:040010000C94460105
:0200340050C3B7
:100040000C9426030FEF0DBF08E00EBFF89400E8F4
:100050000093610004E0009361000FEF04B900E039
:1000600005B90FEF0AB900E00BB908E207B907E1DB
:1000700008B90E943D040E94420401E000936E0012
:1000800001E000936F0007E100936C0002E0009331
:100090006800112723E0332766275527772700E0DC
:1000A000009301010093020100E00093030100E0CE
:1000B0000093040100E00093000100930501009308
:1000C0000601009307010093080100930A010093C1
:1000D0000B0100930C0100930D0100930E0101E050
:1000E00000930F0100E00093100101E00093110163
:1000F00000E0009312010093130100931401009398
:100100001501882700E0009316010093170100E015
:100110000093180100E000931901789400E0009327
:10012000C1002530C1F0203061F0213061F0223073
:1001300061F0233061F024300C94A900253059F08F
:10014000F0CF0C94AD000C94C4000C94E1000C941E
:100150000B010C9438010C943F0180FD0E94830335
:10016000289A299843985091010150930501509184
:1001700002015093060150910301509307015091E1
:10018000040150930801CDCF28982998439880FD09
:100190000E94830383FD0E94CE0384FD0E9410040D
:1001A0005091180150930501509119015093060187
:1001B0005091160150930701509117015093080177
:1001C000B0CF81FD0E94790182FD0E945302289ADE
:1001D0002998439870910B017093050170910C015F
:1001E0007093060170910D017093070170910E01DB
:1001F0007093080150910B015093010150910C0133
:100200005093020150910D015093030150910E0142
:100210005093040186CF2898299A439881FD0E9423
:10022000790182FD0E94530280FD0E948303709138
:100230000F01709305017091100170930601709188
:100240001101709307017091120170930801509190
:100250000F015093180150911001509319015091C2
:10026000110150931601509112015093170159CF6B
:1002700080FD0E94830328982998439A52CF80FDDD
:100280000E9483032898299843984BCF0F930FB768
:100290000F93329B0C945701309B0C945F01319B60
:1002A0000C946301349B0C9467010C9475012395A5
:1002B00006E020130C94750122270C94750102E0CE
:1002C00080270C94750104E080270C9475017091CF
:1002D0000A01739570930A0102E070130C94750182
:1002E000772770930A010C9475010F910FBF0F913E
:1002F000189502E08027223011F40C9485012330F8
:1003000011F40C94D4010C94520270910A017030D3
:1003100021F07130E1F00C94520270910B017930B0
:1003200029F0739570930B010C94520270E0709356
:100330000B0170910C01739570930C0106E0701322
:100340000C945202772770930C010C945202709116
:100350000E01723079F470910D017330F1F477274A
:1003600070930B0170930C0170930D0170930E014B
:100370000C94520270910D01793029F073957093AD
:100380000D010C94520270E070930D0170910E01FA
:10039000739570930E010C94520270910D01739538
:1003A00070930D010C94520270910A01703021F08B
:1003B0007130D1F10C945202709115017C3029F00A
:1003C0007395709315010C94EA0170E07093150118
:1003D0000C94EA0170911001713061F470910F0179
:1003E000723089F471E070930F01772770931001D8
:1003F0000C94520270910F01793061F073957093F3
:100400000F010C94520270910F01739570930F01BC
:100410000C94520270E070930F017091100173956B
:10042000709310010C94520270911501F8E0EEEAFD
:10043000E70F04910093130170911501F8E0EAEBC6
:10044000E70F0491009314017091120100911401BF
:10045000701771F400911301709111017017D9F4A4
:1004600071E0709311017727709312010C9452027E
:1004700070911101793029F07395709311010C94EA
:10048000520270E070931101709112017395709394
:1004900012010C9452027091110173957093110125
:1004A0000C945202089504E080270C9457022230E5
:1004B00011F40C946102233011F40C94AF020C94EB
:1004C000520270910A01703021F07130F1F00C94F9
:1004D000520270910B01703029F07A9570930B01E4
:1004E0000C94520279E070930B0170910C01703002
:1004F00029F07A9570930C010C94520270910C01C2
:1005000075E070930C010C94520270910E017030E2
:1005100061F470910D017030D9F473E070930D01A6
:1005200072E070930E010C94520270910D017030C4
:1005300029F07A9570930D010C94520270910E017E
:100540007A9570930E0179E070930D010C9452022C
:1005500070910D017A9570930D010C945202709177
:100560000A01703021F07130A9F10C94520270919F
:100570001501703029F07A95709315010C94C5021D
:1005800072E1709315010C94520270911001703059
:1005900021F470910F017130A9F070910F0170304A
:1005A00029F07A9570930F010C945202709110010A
:1005B0007A957093100179E070930F01703011F00B
:1005C0000C94520272E070930F0171E0709310016D
:1005D0000C94520270911501F8E0EEEAE70F0491D5
:1005E0000093130170911501F8E0EAEBE70F049115
:1005F0000093140170911201703071F47091110127
:100600007130E9F47091130170931101709114012C
:10061000709312010C94520270911101703029F004
:100620007A95709311010C945202709112017A958F
:100630007093120179E0709311010C945202709141
:1006400011017A95709311010C9452020F930FB718
:100650000F932A982B982C982D98139505E010133A
:100660000C94350310E00C946703113041F0123004
:1006700081F01330C1F0143001F10C9467032A9A11
:1006800060910501F8E0EEE9E60F44914BB90C9456
:1006900067032B9A60910601F8E0EEE9E60F4491BA
:1006A0004BB90C9467032C9A60910701F8E0EEE9CE
:1006B000E60F44914BB90C9467032D9A60910801A1
:1006C000F8E0EEE9E60F44914BB90C9467030F9103
:1006D0000FBF0F9118950F930FB70F9304E04027AA
:1006E0004BB950910001539550930001513039F4AA
:1006F00055275093000101E080270C947F030F9150
:100700000FBF0F91189501E08027509101015930DA
:1007100029F05395509301010C943C0450E0509300
:10072000010150910201553029F053955093020177
:100730000C943C0450E050930101509302015091FD
:100740000401523089F450910301533001F55527CB
:1007500050930101509302015093030150930401FF
:1007600008E080270C943C0450910301593029F093
:100770005395509303010C943C0450E050930301B3
:10078000509104015395509304010C943C045091F2
:1007900003015395509303010C943C0408E0802717
:1007A00070911501F8E0EEEAE70F04910093130150
:1007B00070911501F8E0EAEBE70F04910093140142
:1007C0007091170100911401701781F400911301C9
:1007D000709116017017E9F471E070931601772794
:1007E0007093170100E180270C943C04709116016E
:1007F000793029F07395709316010C943C0470E0E5
:1008000070931601709117017395709317010C94F2
:100810003C04709117017395709317010C943C047C
:1008200000E1802770911901713061F47091180115
:10083000723089F471E07093180177277093190171
:100840000C943C0470911801793061F073957093A9
:1008500018010C943C047091180173957093180161
:100860000C943C0470E07093180170911901739519
:10087000709319010C943C04089502E005BD06E054
:1008800006BD08950BE0009385000DEC00938400F5
:1008900000E00093800002E00093810008957B0A4D
:1008A000B39BCAD9F90BFBDBEBF871B4F1E101089A
:1008B0000100010001010001000103020303030321
:0608C00003030303030320
:00000001FF
