:020000020000FC
:0200000025C019
:040010000C94020149
:020034004AC2BE
:100040000C9420020FEF0DBF08E00EBFF89400E8FB
:100050000093610004E0009361000FEF04B900E039
:1000600005B90FEF0AB900E00BB908E207B907E1DB
:1000700008B90E94C7020E94CC0201E000936E0002
:1000800001E000936F0007E100936C0002E0009331
:100090006800112720E0332766275527772700E0DF
:1000A000009301010093020100E00093030100E0CE
:1000B0000093040100E00093000100930501009308
:1000C0000601009307010093080100930A010093C1
:1000D0000B0100930C0100930D0100930E0100939E
:1000E0000F01009310010093110100931201882762
:1000F000789400E00093C1002530C1F0203061F019
:10010000213061F0223061F0233061F024300C9412
:100110009400253059F0F0CF0C9498000C94AF0067
:100120000C94B6000C94E0000C94FA000C94FE00C1
:1001300080FD0E947D02289A2998439850910101E0
:100140005093050150910201509306015091030113
:10015000509307015091040150930801CDCF289886
:100160002998439809E000930501C6CF81FD0E94BC
:10017000350182FD0E94C401289A29984398709104
:100180000B017093050170910C0170930601709141
:100190000D017093070170910E0170930801509149
:1001A0000B015093010150910C01509302015091A9
:1001B0000D015093030150910E01509304019CCF07
:1001C0002898299A439881FD0E94350182FD0E945A
:1001D000C40170910F01709305017091100170932B
:1001E00006017091110170930701709112017093D3
:1001F000080182CF28982998439A7ECF2898299879
:1002000043987ACF0F930FB70F93329B0C9413013F
:10021000309B0C941B01319B0C941F01349B0C945C
:1002200023010C943101239506E020130C94310135
:1002300022270C94310102E080270C94310104E064
:1002400080270C94310170910A01739570930A0113
:1002500002E070130C943101772770930A010C941B
:1002600031010F910FBF0F91189502E080272230C6
:1002700011F40C944101233011F40C9490010C946E
:10028000C30170910A01703021F07130E1F00C94DB
:10029000C30170910B01793029F0739570930B01B4
:1002A0000C94C30170E070930B0170910C01739575
:1002B00070930C0106E070130C94C30177277093C0
:1002C0000C010C94C30170910E01723079F470919D
:1002D0000D017430F1F4772770930B0170930C01CA
:1002E00070930D0170930E010C94C30170910D0178
:1002F000793029F0739570930D010C94C30170E06F
:1003000070930D0170910E01739570930E010C9412
:10031000C30170910D01739570930D010C94C3018D
:1003200070910A01703021F0713059F10C94C301C1
:1003300070911001713059F470910F01723081F495
:10034000772770930F01709310010C94C301709183
:100350000F01793061F0739570930F010C94C30114
:1003600070910F01739570930F010C94C30170E0AD
:1003700070930F01709110017395709310010C949C
:10038000C3010C94C301089504E080270C94C801B4
:10039000223011F40C94D0012330A9F70C941E02E2
:1003A00070910A01703021F07130F1F00C94C301AA
:1003B00070910B01703029F07A9570930B010C94B9
:1003C000C30179E070930B0170910C01703029F03A
:1003D0007A9570930C010C94C30170910C0175E037
:1003E00070930C010C94C30170910E01703061F494
:1003F00070910D017030D9F474E070930D0172E0CA
:1004000070930E010C94C30170910D01703029F0AE
:100410007A9570930D010C94C30170910E017A9539
:1004200070930E0179E070930D010C94C3017091EB
:100430000D017A9570930D010C94C3010C94C301C6
:100440000F930FB70F932A982B982C982D981395EC
:1004500005E010130C942F0210E00C94610211308F
:1004600041F0123081F01330C1F0143001F10C94DE
:1004700061022A9A60910501F5E0E2EBE60F4491F2
:100480004BB90C9461022B9A60910601F5E0E2EB06
:10049000E60F44914BB90C9461022C9A60910701CC
:1004A000F5E0E2EBE60F44914BB90C9461022D9A12
:1004B00060910801F5E0E2EBE60F44914BB90C9432
:1004C00061020F910FBF0F9118950F930FB70F9304
:1004D00004E040274BB9509100015395509300011F
:1004E000513039F455275093000101E080270C94D6
:1004F00079020F910FBF0F91189501E0802750915D
:100500000101593029F05395509301010C94C60212
:1005100050E05093010150910201553029F053955C
:10052000509302010C94C60250E050930101509385
:10053000020150910401523079F45091030153307B
:10054000F1F4552750930101509302015093030198
:10055000509304010C94C60250910301593029F0C4
:100560005395509303010C94C60250E0509303013D
:10057000509104015395509304010C94C60250917C
:1005800003015395509303010C94C602089502E0B1
:1005900005BD06E006BD08950BE0009385000DEC57
:1005A0000093840000E00093800002E0009381004B
:1005B00008957B0AB39BCAD9F90BFBDBEBF871B446
:0205C000F1E167
:00000001FF
