:020000020000FC
:0200000025C019
:040010000C940C013F
:0200340016C3F1
:100040000C94EC020FEF0DBF08E00EBFF89400E82F
:100050000093610004E0009361000FEF04B900E039
:1000600005B90FEF0AB900E00BB908E207B907E1DB
:1000700008B90E9493030E94980301E000936E0068
:1000800001E000936F0007E100936C0002E0009331
:100090006800112723E0332766275527772700E0DC
:1000A000009301010093020100E00093030100E0CE
:1000B0000093040100E00093000100930501009308
:1000C0000601009307010093080100930A010093C1
:1000D0000B0100930C0100930D0100930E0101E050
:1000E00000930F0100E00093100101E00093110163
:1000F00000E0009312010093130100931401009398
:1001000015018827789400E00093C1002530C1F0E4
:10011000203061F0213061F0223061F0233061F055
:1001200024300C949E00253059F0F0CF0C94A2009E
:100130000C94B9000C94C0000C94EA000C940401D7
:100140000C94080180FD0E944903289A299843983D
:100150005091010150930501509102015093060105
:1001600050910301509307015091040150930801ED
:10017000CDCF28982998439809E000930501C6CF70
:1001800081FD0E943F0182FD0E941902289A299850
:10019000439870910B017093050170910C0170935D
:1001A000060170910D017093070170910E0170931B
:1001B000080150910B015093010150910C01509393
:1001C000020150910D015093030150910E01509383
:1001D00004019CCF2898299A439881FD0E943F01F1
:1001E00082FD0E94190270910F01709305017091B8
:1001F00010017093060170911101709307017091C5
:1002000012017093080182CF28982998439A7ECFD3
:100210002898299843987ACF0F930FB70F93329B62
:100220000C941D01309B0C942501319B0C942901E9
:10023000349B0C942D010C943B01239506E0201374
:100240000C943B0122270C943B0102E080270C9484
:100250003B0104E080270C943B0170910A017395E7
:1002600070930A0102E070130C943B01772770939E
:100270000A010C943B010F910FBF0F91189502E0FA
:100280008027223011F40C944B01233011F40C948C
:100290009A010C94180270910A01703021F07130AB
:1002A000E1F00C94180270910B01793029F07395EC
:1002B00070930B010C94180270E070930B01709115
:1002C0000C01739570930C0106E070130C941802E6
:1002D000772770930C010C94180270910E01723004
:1002E00079F470910D017330F1F4772770930B015D
:1002F00070930C0170930D0170930E010C94180211
:1003000070910D01793029F0739570930D010C9463
:10031000180270E070930D0170910E017395709347
:100320000E010C94180270910D01739570930D01DC
:100330000C94180270910A01703021F07130D1F1E3
:100340000C941802709115017C3029F0739570930C
:1003500015010C94B00170E0709315010C94B0017C
:1003600070911001713061F470910F01723089F455
:1003700071E070930F017727709310010C941802AD
:1003800070910F01793061F0739570930F010C94A7
:10039000180270910F01739570930F010C9418025D
:1003A00070E070930F0170911001739570931001BC
:1003B0000C94180270911501F7E0EAE5E70F04913B
:1003C0000093130170911501F7E0E6E6E70F049141
:1003D000009314017091120100911401701771F4CF
:1003E00000911301709111017017D9F471E07093AD
:1003F00011017727709312010C941802709111016A
:10040000793029F07395709311010C94180270E003
:1004100070931101709112017395709312010C94F5
:100420001802709111017395709311010C941802C8
:10043000089504E080270C941D02223011F40C94DE
:100440002702233011F40C9475020C941802709159
:100450000A01703021F07130F1F00C9418027091A3
:100460000B01703029F07A9570930B010C941802EF
:1004700079E070930B0170910C01703029F07A953E
:1004800070930C010C94180270910C0175E070933C
:100490000C010C94180270910E01703061F470918F
:1004A0000D017030D9F473E070930D0172E0709318
:1004B0000E010C94180270910D01703029F07A959C
:1004C00070930D010C94180270910E017A9570933F
:1004D0000E0179E070930D010C94180270910D01DA
:1004E0007A9570930D010C94180270910A01703086
:1004F00021F07130A9F10C9418027091150170303F
:1005000029F07A95709315010C948B0272E1709327
:1005100015010C94180270911001703021F4709143
:100520000F017130A9F070910F01703029F07A95A8
:1005300070930F010C941802709110017A957093CA
:10054000100179E070930F01703011F00C941802D3
:1005500072E070930F0171E0709310010C94180217
:1005600070911501F7E0EAE5E70F0491009313019C
:1005700070911501F7E0E6E6E70F0491009314018E
:1005800070911201703071F4709111017130E9F4C1
:100590007091130170931101709114017093120105
:1005A0000C94180270911101703029F07A957093B3
:1005B00011010C941802709112017A957093120136
:1005C00079E0709311010C941802709111017A95E1
:1005D000709311010C9418020F930FB70F932A9880
:1005E0002B982C982D98139505E010130C94FB0272
:1005F00010E00C942D03113041F0123081F01330D3
:10060000C1F0143001F10C942D032A9A6091050178
:10061000F7E0EAE4E60F44914BB90C942D032B9AD2
:1006200060910601F7E0EAE4E60F44914BB90C94BF
:100630002D032C9A60910701F7E0EAE4E60F44915C
:100640004BB90C942D032D9A60910801F7E0EAE470
:10065000E60F44914BB90C942D030F910FBF0F91EE
:1006600018950F930FB70F9304E040274BB95091A3
:100670000001539550930001513039F455275093A0
:10068000000101E080270C9445030F910FBF0F91EB
:10069000189501E0802750910101593029F05395B8
:1006A000509301010C94920350E05093010150913A
:1006B0000201553029F05395509302010C94920396
:1006C00050E05093010150930201509104015230C7
:1006D00079F4509103015330F1F4552750930101FF
:1006E0005093020150930301509304010C94920320
:1006F00050910301593029F05395509303010C9404
:10070000920350E05093030150910401539550938C
:1007100004010C94920350910301539550930301EB
:100720000C949203089502E005BD06E006BD08950D
:100730000BE0009385000DEC0093840000E0009333
:10074000800002E00093810008957B0AB39BCAD920
:10075000F90BFBDBEBF871B4F1E1010801000100DA
:100760000101000100010302030303030303030368
:02077000030381
:00000001FF
