:020000020000FC
:0200000025C019
:040010000C946E00DE
:100040000C947E000FEF0DBF08E00EBFF89400E89F
:100050000093610004E0009361000FEF04B900E039
:1000600005B90FEF0AB900E00BB908E107B907E0DD
:1000700008B90E94BB0001E000936E0007E0009306
:100080006C0002E00093680055274427789400E054
:100090000093C100403059F0413061F0423071F0BE
:1000A000433081F0443091F04530A1F0F3CF2898EF
:1000B0002998F0CF289829984398ECCF289A299826
:1000C0004398E8CF2898299A4398E4CF289829980C
:1000D000439AE0CF289829984398DCCF0F930FB725
:1000E0000F93329B439506E040130C947A0044270B
:1000F0000C947A000F910FBF0F9118950F930FB7C3
:100100000F932A982B982C982D98539505E050130F
:100110000C948D0050E00C94B700513041F05230F7
:1001200071F05330A1F05430D1F00C94B7002A9AFA
:10013000F1E0E0E8319634913BB90C94B7002B9A8A
:10014000F1E0E0E8329634913BB90C94B7002C9A78
:10015000F1E0E0E8339634913BB90C94B7002D9A66
:10016000F1E0E0E8349634913BB90C94B7000F917C
:100170000FBF0F91189502E005BD06E006BD08957A
:100180007B0AB39BCAD9F90BFBDBEBF871B4F1E145
:00000001FF
