:020000020000FC
:0200000025C019
:040010000C949C00B0
:02003400D6C034
:100040000C94AC000FEF0DBF08E00EBFF89400E871
:100050000093610004E0009361000FEF04B900E039
:1000600005B90FEF0AB900E00BB908E107B907E0DD
:1000700008B90E9447010E944C0101E000936E0004
:1000800001E000936F0007E000936C0002E0009332
:1000900068002227332744277727662700E000934C
:1000A00001010093020100930301009304010093F6
:1000B00000010093050100930601009307010093DE
:1000C0000801789400E00093C100303059F03130DD
:1000D000E1F0323009F1333019F1343029F13530A3
:1000E00039F1F3CF289A29986091010160930501B5
:1000F0006091020160930601609103016093070122
:100100006091040160930801E0CF289829984398F2
:1001100009E000930501D9CF289A29984398D5CFB3
:100120002898299A4398D1CF28982998439ACDCFD7
:10013000289829984398C9CF0F930FB70F93329BF4
:10014000339506E030130C94A80033270C94A800D4
:100150000F910FBF0F9118950F930FB70F932A9818
:100160002B982C982D98239505E020130C94BB0018
:1001700020E00C94ED00213041F0223081F023305A
:10018000C1F0243001F10C94ED002A9A7091050120
:10019000F2E0E2EBE70F54915BB90C94ED002B9A7F
:1001A00070910601F2E0E2EBE70F54915BB90C9419
:1001B000ED002C9A70910701F2E0E2EBE70F549109
:1001C0005BB90C94ED002D9A70910801F2E0E2EB1E
:1001D000E70F54915BB90C94ED000F910FBF0F9195
:1001E00018950F930FB70F9304E050275BB96091F8
:1001F0000001639560930001613061F466276093AC
:10020000000160910101693049F06395609301013B
:100210000C940A010F910FBF0F91189560E0609345
:10022000010160910201653029F06395609302013C
:100230000C940A0160E060930101609302016091F7
:100240000301693029F06395609303010C940A015E
:1002500060E06093030160910401623029F06395CE
:10026000609304010C940A0160910301643091F6DB
:1002700060910401623071F660E060930101609367
:10028000020160930301609304010C940A0102E0EF
:1002900005BD06E006BD08950BE0009385000DEC5A
:1002A0000093840000E00093800002E0009381004E
:1002B00008957B0AB39BCAD9F90BFBDBEBF871B449
:0202C000F1E16A
:00000001FF
