:020000020000FC
:0200000025C019
:040010000C94BF008D
:02003400A2C167
:100040000C9478010FEF0DBF08E00EBFF89400E8A4
:100050000093610004E0009361000FEF04B900E039
:1000600005B90FEF0AB900E00BB908E207B907E1DB
:1000700008B90E9413020E94180201E000936E006A
:1000800001E000936F0007E100936C0002E0009331
:10009000680011272227332766275527772700E096
:1000A00000930101009302010093030100930401F6
:1000B00000930001009305010093060100930701DE
:1000C0000093080100930A0100930B0100930C01B7
:1000D00000930D0100930E0100930F010093100196
:1000E0000093110100931201789400E00093C10085
:1000F000203059F02130E1F0223009F1233099F11C
:100100002430A9F12530B9F1F3CF289A29985091DC
:100110000101509305015091020150930601509145
:100120000301509307015091040150930801E0CF5F
:1001300028982998439809E000930501D9CF289A77
:100140002998439870910B017093050170910C01EF
:100150007093060170910D017093070170910E016B
:1001600070930801C5CF2898299A4398C1CF289841
:100170002998449ABDCF289829984398B9CF0F93CE
:100180000FB70F93329B0C94D000309B0C94D80087
:10019000319B0C941C01349B0C9464010C947401ED
:1001A000239506E020130C94740122270C9474010B
:1001B000223021F02330F1F10C94740170910A0186
:1001C000703021F07130E1F00C94740170910B01EA
:1001D000793029F0739570930B010C94740170E0E1
:1001E00070930B0170910C01739570930C0106E0F4
:1001F00070130C947401772770930C010C947401A4
:1002000070910D01793029F0739570930D010C9464
:10021000740170E070930D0170910E0173957093ED
:100220000E0106E070130C947401772770930E0191
:100230000C9474010C94740122300C94240123302A
:100240000C9472010C94740170910A01703021F0C9
:100250007130F1F00C94740170910B01703029F041
:100260007A9570930B010C94740179E070930B01F3
:1002700070910C01703029F07A9570930C010C94F8
:10028000740170910C0175E070930C010C94740171
:1002900070910D01703029F07A9570930D010C94D6
:1002A000740179E070930D0170910E01703029F0A6
:1002B0007A9570930E010C94740170910E0175E0A3
:1002C00070930E010C94740170910A0173957093F0
:1002D0000A0102E070130C947401772770930A01ED
:1002E0000C9474010C9474010F910FBF0F91189529
:1002F0000F930FB70F932A982B982C982D9813953E
:1003000005E010130C94870110E00C94B901113032
:1003100041F0123081F01330C1F0143001F10C942F
:10032000B9012A9A60910501F4E0EAE4E60F4491EC
:100330004BB90C94B9012B9A60910601F4E0EAE400
:10034000E60F44914BB90C94B9012C9A60910701C6
:10035000F4E0EAE4E60F44914BB90C94B9012D9A0C
:1003600060910801F4E0EAE4E60F44914BB90C9483
:10037000B9010F910FBF0F9118950F930FB70F93FE
:1003800004E040274BB95091000153955093000170
:10039000513061F4552750930001509101015930BB
:1003A00049F05395509301010C94D6010F910FBF62
:1003B0000F91189550E05093010150910201553072
:1003C00029F05395509302010C94D60150E05093BC
:1003D00001015093020150910301593029F05395C6
:1003E000509303010C94D60150E0509303015091B7
:1003F0000401523029F05395509304010C94D60116
:1004000050910301543091F650910401523071F62D
:1004100050E0509301015093020150930301509317
:1004200004010C94D60102E005BD06E006BD089566
:100430000BE0009385000DEC0093840000E0009336
:10044000800002E00093810008957B0AB39BCAD923
:0A045000F90BFBDBEBF871B4F1E1EE
:00000001FF
