:020000020000FC
:020000000DC031
:100010000C9451000FEF0DBF08E00EBFF89400E8FC
:100020000093610004E0009361000FEF04B900E069
:1000300005B90FEF0AB900E00BB908E107B907E00D
:1000400008B907E000936C0002E0009368005527B0
:100050004427789400E00093C100403059F04130CB
:1000600061F0423071F0433081F0443091F045301E
:10007000A1F0F3CF28982998F0CF28982998439891
:10008000ECCF289A29984398E8CF2898299A439842
:10009000E4CF28982998439AE0CF28982998439844
:1000A000DCCF0F930FB70F93329B439506E04013BD
:1000B0000C945D0044270C945D000F910FBF0F91CD
:0200C000189591
:00000001FF
