:020000020000FC
:0200000025C019
:040010000C94CD007F
:02003400BFC14A
:100040000C9495010FEF0DBF08E00EBFF89400E887
:100050000093610004E0009361000FEF04B900E039
:1000600005B90FEF0AB900E00BB908E207B907E1DB
:1000700008B90E9431020E94360201E000936E002E
:1000800001E000936F0007E100936C0002E0009331
:10009000680011272227332766275527772700E096
:1000A000009301010093020103E00093030102E0C9
:1000B0000093040100E00093000100930501009308
:1000C0000601009307010093080100930A010093C1
:1000D0000B0100930C0100930D0100930E0100939E
:1000E0000F01009310010093110100931201882762
:1000F000789400E00093C100203061F0213001F1DC
:10010000223029F12330E9F12430F9F125300C9423
:10011000C900F2CF80FD0E94F201289A29985091DF
:100120000101509305015091020150930601509135
:100130000301509307015091040150930801DCCF53
:1001400028982998439809E000930501D5CF81FDAF
:100150000E94000182FD0E944701289A2998439835
:1001600070910B017093050170910C017093060161
:1001700070910D017093070170910E017093080149
:10018000BBCF2898299A4398B7CF28982998449AA2
:10019000B3CF289829984398AFCF0F930FB70F93F9
:1001A000329B0C94DE00309B0C94E600319B0C9447
:1001B000EA00349B0C94EE000C94FC00239506E0BE
:1001C00020130C94FC0022270C94FC0002E08027F2
:1001D0000C94FC0004E080270C94FC0070910A0150
:1001E000739570930A0102E070130C94FC0077275A
:1001F00070930A010C94FC000F910FBF0F9118959A
:1002000002E08027223021F02330F1F10C944601E6
:1002100070910A01703021F07130E1F00C944601C8
:1002200070910B01793029F0739570930B010C9448
:10023000460170E070930B0170910C0173957093FF
:100240000C0106E070130C944601772770930C01A3
:100250000C94460170910D01793029F073957093DB
:100260000D010C94460170E070930D0170910E0128
:10027000739570930E0106E070130C944601772776
:1002800070930E010C9446010C944601089504E00D
:1002900080270C944B01223011F40C94530123302D
:1002A000A9F70C94930170910A01703021F071301C
:1002B000F1F00C94460170910B01703029F07A95A1
:1002C00070930B010C94460179E070930B017091CF
:1002D0000C01703029F07A9570930C010C94460152
:1002E00070910C0175E070930C010C9446017091B3
:1002F0000D01703029F07A9570930D010C94460130
:1003000079E070930D0170910E01703029F07A95AB
:1003100070930E010C94460170910E0175E070937C
:100320000E010C9446010C9446010F930FB70F93E6
:100330002A982B982C982D98139505E010130C945F
:10034000A40110E00C94D601113041F0123081F07C
:100350001330C1F0143001F10C94D6012A9A609147
:100360000501F4E0E6E8E60F44914BB90C94D601A0
:100370002B9A60910601F4E0E6E8E60F44914BB950
:100380000C94D6012C9A60910701F4E0E6E8E60FA0
:1003900044914BB90C94D6012D9A60910801F4E078
:1003A000E6E8E60F44914BB90C94D6010F910FBFCC
:1003B0000F9118950F930FB70F9304E040274BB997
:1003C00050910001539550930001513039F4552755
:1003D0005093000101E080270C94EE010F910FBFB4
:1003E0000F91189501E0802750910101593029F0B3
:1003F0005395509301010C94300250E05093010149
:1004000050910201553029F05395509302010C94FC
:10041000300250E0509301015093020150910301CA
:10042000593029F05395509303010C94300250E059
:100430005093030150910401523029F05395509389
:1004400004010C94300250910301543049F450E0FF
:100450005093010150930201509303015093040102
:10046000089502E005BD06E006BD08950BE0009387
:1004700085000DEC0093840000E00093800002E012
:100480000093810008957B0AB39BCAD9F90BFBDB6B
:06049000EBF871B4F1E18C
:00000001FF
