:020000020000FC
:0200000025C019
:040010000C94E40068
:020034000BC2FD
:100040000C94E1010FEF0DBF08E00EBFF89400E83B
:100050000093610004E0009361000FEF04B900E039
:1000600005B90FEF0AB900E00BB908E207B907E1DB
:1000700008B90E9488020E948D0201E000936E0080
:1000800001E000936F0007E100936C0002E0009331
:10009000680011272227332766275527772700E096
:1000A000009301010093020102E00093030102E0CA
:1000B0000093040100E00093000100930501009308
:1000C0000601009307010093080100930A010093C1
:1000D0000B0100930C0100930D0100930E0100939E
:1000E0000F01009310010093110100931201882762
:1000F000789400E00093C100203069F0213009F1CC
:10010000223031F12330F1F124300C94DC00253021
:100110000C94E000F1CF80FD0E943E02289A2998BD
:100120005091010150930501509102015093060135
:10013000509103015093070150910401509308011D
:10014000DBCF28982998439809E000930501D4CF84
:1001500081FD0E94170182FD0E949301289A29982F
:10016000439870910B017093050170910C0170938D
:10017000060170910D017093070170910E0170934B
:100180000801BACF2898299A439881FD0E94170147
:1001900082FD0E94930170910F017093050170918F
:1001A0001001709306017091110170930701709115
:1001B000120170930801A0CF28982998449A9CCFE7
:1001C00028982998439898CF0F930FB70F93329B95
:1001D0000C94F500309B0C94FD00319B0C940101B4
:1001E000349B0C9405010C941301239506E0201315
:1001F0000C94130122270C94130102E080270C9425
:10020000130104E080270C94130170910A01739587
:1002100070930A0102E070130C9413017727709316
:100220000A010C9413010F910FBF0F91189502E072
:100230008027223011F40C942301233011F40C9404
:100240005F010C94920170910A01703021F07130BD
:10025000E1F00C94920170910B01793029F07395C3
:1002600070930B010C94920170E070930B017091EC
:100270000C01739570930C0106E070130C949201BD
:10028000772770930C010C94920170910D017930D5
:1002900029F0739570930D010C94920170E07093A6
:1002A0000D0170910E01739570930E0106E07013AD
:1002B0000C949201772770930E010C949201709127
:1002C0000A01703021F0713059F10C949201709153
:1002D0001001713059F470910F01723081F4772759
:1002E00070930F01709310010C94920170910F01A3
:1002F000793061F0739570930F010C9492017091B5
:100300000F01739570930F010C94920170E070933C
:100310000F01709110017395709310010C9492016C
:100320000C949201089504E080270C9497012230E8
:1003300011F40C949F012330A9F70C94DF01709104
:100340000A01703021F07130F1F00C94920170913B
:100350000B01703029F07A9570930B010C94920187
:1003600079E070930B0170910C01703029F07A954F
:1003700070930C010C94920170910C0175E07093D4
:100380000C010C94920170910D01703029F07A9556
:1003900070930D010C94920179E070930D017091AE
:1003A0000E01703029F07A9570930E010C94920131
:1003B00070910E0175E070930E010C9492010C94F3
:1003C00092010F930FB70F932A982B982C982D9882
:1003D000139505E010130C94F00110E00C94220228
:1003E000113041F0123081F01330C1F0143001F1BE
:1003F0000C9422022A9A60910501F5E0E4E3E60FED
:1004000044914BB90C9422022B9A60910601F5E0BD
:10041000E4E3E60F44914BB90C9422022C9A6091CC
:100420000701F5E0E4E3E60F44914BB90C94220296
:100430002D9A60910801F5E0E4E3E60F44914BB991
:100440000C9422020F910FBF0F9118950F930FB7C5
:100450000F9304E040274BB95091000153955093FE
:100460000001513039F455275093000101E08027F5
:100470000C943A020F910FBF0F91189501E080275D
:1004800050910101593029F05395509301010C947A
:10049000870250E05093010150910201553029F03C
:1004A0005395509302010C94870250E05093010140
:1004B0005093020150910401523079F4509103019C
:1004C0005330F1F45527509301015093020150939A
:1004D0000301509304010C94870250910301593099
:1004E00029F05395509303010C94870250E05093E8
:1004F0000301509104015395509304010C94870219
:10050000509103015395509303010C948702089571
:1005100002E005BD06E006BD08950BE000938500EE
:100520000DEC0093840000E00093800002E0009353
:10053000810008957B0AB39BCAD9F90BFBDBEBF86A
:0405400071B4F1E1C0
:00000001FF
